:100000000C94E1020C9428030C9428030C9428030C
:100010000C9428030C9428030C9428030C942803B4
:100020000C9428030C9428030C943F1C0C94131D6F
:100030000C94AE170C9428030C9428030C942803FA
:100040000C9428030C9428030C9428030C94280384
:100050000C9428030C94F9170C9428030C9428038F
:100060000C9428030C9428030C9428030C94280364
:100070000C9428030C9428030C9428030C94280354
:100080000C9428030C9428030C9428030C94280344
:100090000C9428030C9428030C9428030C94280334
:1000A0000C9428030C9428030C942803303000355A
:1000B000001E001F00200021002200230024002534
:1000C00000260027004C002B0014001A0008001521
:1000D0000017001C0018000C00120013002A002951
:1000E0000004001600070009000A000B000D000EB6
:1000F000000F0033003400E1001D001B0006001952
:10010000000500110010003600370038002800E01C
:10011000000451E300E200025100002C00035150A2
:1001200000510052004F0000575400550056005F28
:100130000060006100570000000000000000005C4B
:10014000005D005E0059005A005B00580062002804
:100150005D63000000000035001E001F002000212C
:10016000002200230024002500260027004C002B3D
:100170000014001A000800150017001C0018000CDD
:1001800000120013002A00290004001600070009CD
:10019000000A000B000D000E000F0033003400E1D8
:1001A000001D001B0006001900050011001000369C
:1001B00000370038002800E0000451E300E20002AC
:1001C0005100002C0003515000510052004F00011B
:1001D000574A004B0001004C004D004E000100004A
:1001E0000000000000000001000100010059005261
:1001F0000001000100500051004F000000000035D8
:10020000021E0234023200210222022302240225AD
:100210000226022702010035021E021F02200221CF
:100220000222022302240225022F003000010001D5
:1002300000010001000100010001000100010001B6
:10024000002F0230021F02E1000100010001000145
:10025000002D002E0001004A004D00640001000145
:10026000000100010001000100000001000100ABDD
:1002700000AA00A900AE0053005400550056005FCC
:100280000060006100570000000000000000005CFA
:10029000005D005E0059005A005B005800620028B3
:1002A0005D63000000000035021E001F00200021D9
:1002B000002200230024002500260027002A003504
:1002C000001E001F00200021002200230024002522
:1002D000002F0230024C000100010001000100016A
:1002E0000001000100010001002F0030001F023951
:1002F0000001000100010001002D022E0201004E4C
:10030000004B00310001000100010001000100016B
:1003100000000001000100AB00AA00A900AE0053DC
:10032000005400550056005F006000610057000057
:10033000000000000000005C005D005E0059005AF3
:10034000005B0058006200285D630000000000456B
:10035000003A003B003C003D003E003F00400041B1
:10036000004200430044000100005C010001000164
:10037000000100010049000100010046004C00019D
:100380000001000100010001000100010001000165
:10039000000100010001003900010001000100011D
:1003A0000001000100010001000100010001000145
:1003B000000100010001000100000001000100AB8C
:1003C00000AA00A900AE0053005400550056005F7B
:1003D0000060006100570000000000000000005CA9
:1003E000005D005E0059005A005B00580062002862
:1003F0005D63000000000000000000000000002A13
:100400002B28000000000000000000000000000099
:10041000000029000000002C1E3420212224342654
:1004200027252E362D3738271E1F2021222324254D
:10043000263333362E37381F0405060708090A0B02
:100440000C0D0E0F101112131415161718191A1B74
:100450001C1D2F3130232D350405060708090A0B12
:100460000C0D0E0F101112131415161718191A1B54
:100470001C1D2F3130354C00000000000000000032
:1004800000000000000000000000007E0F00D4FF0C
:10049000FFFFC7000000780403300000003803426B
:1004A0000072006900670061006400690065007205
:1004B00000200053006900720020004E0069006CAB
:1004C00000730020004F006C00610076002000499E
:1004D000004900490000001C0341006E00640072E6
:1004E0000065007700200048006100720076006916
:1004F00000650000000403090409023B000201003A
:10050000A0FA090400000103010100092111010002
:10051000012240000705810308000A0904010001C7
:1005200003000000092111010001223B00070582A0
:100530000320000A1201100100000008EDFEBAF4C9
:1005400001000102030105010906A1018505050756
:1005500019E029E7150025019508750181020507B5
:10056000190029EF1500250195F075018102050894
:1005700019012905950575019102950175039101F0
:10058000C005010906A101050719E029E7150025A5
:10059000019508750181029501750881010507190A
:1005A0000029FF150026FF00950675088100050843
:1005B00019012905950575019102950175039101B0
:1005C000C00011241FBECFEFDAE0DEBFCDBF04B6FE
:1005D00003FE27C08091660290916702A091680295
:1005E000B09169028730904BA740B04BD1F4109284
:1005F000660210926702109268021092690214BE9D
:1006000084B7877F84BF0FB6F894A8958091600067
:10061000886180936000109260000FBEE0E0F8E314
:10062000099511E0A0E0B1E0EEE6FEE302C005901E
:100630000D92A835B107D9F722E0A8E5B1E001C0D5
:100640001D92A636B207E1F70E947F190C940D1F88
:100650000C94000088329D4541F4FB01828188237F
:1006600021F08CEA90E00E949C0481E00895CF93F1
:10067000DF939C013A9521153F4168F5EC01CC27A9
:10068000D170DC01AA27B270AC01442754709C01E0
:100690002227387094FF11C080E1CD2B09F480E04F
:1006A000AB2B09F08062452B09F08064232B09F005
:1006B0008068FB01DF91CF91099481E0CD2B09F493
:1006C00080E0AB2B09F08260452B09F08460232B7E
:1006D00081F38860EECFDF91CF910895CF93DF93C0
:1006E000EC01805E9109089720F06DEA7FE0209789
:1006F00011F46EE67DE0CE010E9437038C2FDF916E
:10070000CF910C94080DCF93DF93EC010E94330D31
:10071000CE01805E9109089720F064EB7FE020977E
:1007200011F465E77DE0CE01DF91CF910C943703A2
:1007300081E008950C942A0308950C949C031F9360
:10074000CF93DF9300D000D00F92CDB7DEB74983AF
:100750005A836B833091760189819A8131111DC052
:100760006623B9F02223A9F00E94B214182F682F33
:1007700089819A810E945E1469817A81812F0F900C
:100780000F900F900F900F90DF91CF911F910C94CD
:1007900014050E948A14182FEFCF0E94B2146981A9
:1007A0007A81EDCFFC01262F4081518162817381D6
:1007B00084810C949F03CF93DF93EC0160E00E944F
:1007C000D203BE01DF91CF910C949D03FF920F9352
:1007D0001F93CF93DF93E82FF0E0E950FC4FF490A4
:1007E000C82FC695C695C695D0E0FE01E957FB4FC8
:1007F0000491877010E0082E02C0159507950A94A1
:10080000E2F701701127C958DB4FFE01C491D0E017
:1008100002C0D595C7958A95E2F7C170DD2701150D
:10082000110519F081EE0E94080D209719F086EE4F
:100830000E94080D8F2D0E945B0DCD2B19F086EEC6
:100840000E94330D012B41F081EEDF91CF911F917A
:100850000F91FF900C94330DDF91CF911F910F9169
:10086000FF900895EF92FF920F931F93CF93DF9322
:100870008C01F62E8AE0E82EF8018491882309F491
:1008800054C0813009F04DC0E8012196FE018491E9
:10089000813091F42196FE0184910E945B0D8E01BE
:1008A0000F5F1F4F8F2D815038F3EFE9FFE0319735
:1008B000F1F700C00000F7CF823039F4E80122964A
:1008C000FE0184910E94080DEACF833039F4E801DB
:1008D0002296FE0184910E94330DE1CF8430F9F617
:1008E000E8012296FE01249190E080E0FE0131961D
:1008F0002053330B2A30310548F0019780F2EFE99D
:10090000FFE03197F1F700C00000F7CFE89EA001AB
:10091000E99E500D1124C901840F951F2491EF0108
:10092000E5CF0E94E603E801BACFDF91CF911F9196
:100930000F91FF90EF90089560E00C9432040E94B4
:10094000F915811102C00E9496160C94FE060E94B1
:10095000610B0C94010708950C94AB0481E0089599
:100960000C94AE04CF93C82F0E94AC048C2FCF916F
:100970000C94B00408950E94C50F0E94BA042FEF92
:1009800084E39CE0215080409040E1F700C00000EB
:100990000C941D180F931F93CF93DF93EC0161E02C
:1009A0000E94D2038C01BE010E94C10ABE01C8018F
:1009B0000E949A03882359F1BE01C8010E94070BC7
:1009C000882329F1BE01C8010E94A5088823F9F0F7
:1009D000BE01C8010E94F7088823C9F0BE01C80102
:1009E0000E941A0A882399F08A81882339F0011518
:1009F0008CE5180751F00E3D1C4579F0CE01DF91D2
:100A0000CF911F910F910C9498030E94BB0480E03A
:100A1000DF91CF911F910F9108950E949616F7CF05
:100A200090E080E008950895972F70E02CE0929F69
:100A3000600D711D1124FB0194E5899FE00DF11DEE
:100A40001124EE0FFF1FE155FF4F859194910895FA
:100A5000FC01EE0FFF1FE956FB4F8591949108951D
:100A6000CF93DF930E9414050E942306EC018115A9
:100A700021E59207D0F5811530E5930708F096C07F
:100A800081159042F8F4C11581E0D807B8F4C03E52
:100A9000D10588F4C03CD10508F07BC0C130D10538
:100AA00069F0209759F0CE010497813A910530F012
:100AB000D0E0C0E003C0C83ED105D0F7CE01DF9141
:100AC000CF910895C11590E4D90708F06CC0CE010C
:100AD0009F70C11520E3D20708F45EC0CE019927AC
:100AE000D3FF5EC0EC01D86CE9CF811535E59307E3
:100AF00000F5811544E5940708F08DC0C11583E524
:100B0000D80708F074C0C11592E5D90708F46AC087
:100B1000CE018370992721E030E002C0220F331FFD
:100B20008A95E2F7C695C69580E2C89FE001112438
:100B300055C0811529E59207A0F4811538E5930782
:100B400008F06EC0811546E5940708F0B1CF0E9409
:100B5000BA06C82FD0E0DC2FCC27CC27DF71D062BB
:100B6000ADCFC1158AE5D80708F45FC0CE01905615
:100B70008115904208F09CCF8D2F8F710E94BA068C
:100B800090E0982F882788279F719C012C2BE901E2
:100B9000E6CFCE01805C91090E942805EC018ECF42
:100BA000EC01D06C8BCFDF70D06A88CFE4E09695F3
:100BB0008795EA95E1F783702C2F2695269523706B
:100BC00040E2249F90011124382B8C2F8370C1E0C8
:100BD000D0E002C0CC0FDD1F8A95E2F7C22BD32BE9
:100BE000DC686CCFDC2FCC27C16FD06A67CFCE0119
:100BF0008370992721E030E002C0220F331F8A95CD
:100C0000E2F7C695C69590E2C99FE0011124C22B78
:100C1000D32BDA6853CFD82FCC27C46FD06A4ECFEE
:100C2000D82FCC27C06FD06A49CF8C2F8F700E94ED
:100C3000BA0634E0D695C7953A95E1F7CF709C2F68
:100C4000EC01D0693BCF82389105B1F1B0F481332A
:100C5000910509F475C048F48932910509F469C019
:100C60008A32910509F473C008958533910509F41A
:100C700059C08933910501F10895833E9105A9F189
:100C800038F4803E9105F9F0823E910549F10895CE
:100C9000863E9105A9F1873E9105C9F1843E9105F3
:100CA00019F52091580221FF1FC08091570284FD41
:100CB00014C087EE90E00895209157022370A1F0B0
:100CC00080EE90E008952091570220FD47C03091BA
:100CD000580230FF09C024FF44C090E080E004C007
:100CE0002091570222FDF7CF08952091570222FD4F
:100CF0003BC03091580230FDE3CF24FFF5CFEDCF5C
:100D00002091570223FFF0CF24FDE7CFD2CF2091CF
:100D1000570223FD2CC03091580231FFEECF84EEF4
:100D200090E008952091570225FFDECF89E290E000
:100D300008952091570225FFD7CF85E390E00895CD
:100D40002091570226FFD0CF8AE290E008952091AB
:100D5000570226FFC9CF81E390E0089589E390E030
:100D6000089583EE90E0089582EE90E0089586EE77
:100D700090E008959091570292FF06C0282F2871A5
:100D80002830F9F4877F846093FF06C0282F2871EC
:100D90002831F1F4877E84612091580220FF06C03B
:100DA000382F38713830D9F4877F816021FF06C031
:100DB000282F28712831D1F4877E816194FD877EA8
:100DC0000895282F24712430F9F68B7F8860DCCFBA
:100DD000282F2471243101F78B7E8861DDCF382FD5
:100DE0003171313019F78E7F8860E0CF282F217163
:100DF000213121F78E7E8861E1CF08950C94FD06A4
:100E000008950C940007E82FF0E0EE0FFF1FEB5B56
:100E1000FD4F808191810895089580EA8A95F1F7C8
:100E20000895A0E5B1E061E070E08D91E82FE295D2
:100E3000EF70F0E041A18F709B0101C0220F8A95F5
:100E4000EAF7922F9095942391A382A1822B82A3FB
:100E500081E0A735B80749F7A4E4B1E061E070E0AC
:100E60008D91E82FE295EF70F0E041A18F709B012A
:100E700001C0220F8A95EAF7922F9095942391A3AF
:100E800082A1822B82A381E0A035B80749F7E7E36E
:100E9000F2E0A5E4B2E085E492E0119211921D9295
:100EA0001D928E179F07C9F787E00E94E0070C94F8
:100EB0009F048F929F92AF92BF92CF92DF92EF9258
:100EC000FF920F931F93CF93DF9380E5E82E81E08D
:100ED000F82E07E312E0912CAA24A394B12CF70179
:100EE00081917F01C82FC295CF70D0E099A18F70FA
:100EF000650101C0CC0C8A95EAF7892F8C2989A35A
:100F00008AA18C2C809488218AA30E940D07E4E496
:100F1000F1E050E040E030E020E06191A62FA295A2
:100F2000AF70B0E090968C9190E06F7002C0959594
:100F300087956A95E2F780FD3EC0C501042E02C088
:100F4000880F991F0A94E2F7282B392B4F5F5F4FC8
:100F50004C30510511F789A1882289A28AA1C82A9B
:100F6000CAA2F801808191812817390739F13183AC
:100F7000208381E0982A0E5F1F4FF7E5EF16F1E01E
:100F8000FF0609F0ACCF292D47E065E472E087E366
:100F900092E00E94E1070E94A704892DDF91CF9182
:100FA0001F910F91FF90EF90DF90CF90BF90AF9087
:100FB0009F908F90089590E080E0C6CF80E0DACFD8
:100FC0000895FF920F931F93CF93DF93F82E092F6D
:100FD000162FD72FC42F222349F081E080935A0186
:100FE0000E94DE17909359018093580180915A0115
:100FF0008823A1F080915801909159010E94EA172D
:10100000069760F0EF2DF02FA12FBD2F90E080E02C
:10101000D0E08C179D0744F010925A01DF91CF91D8
:101020001F910F91FF900895219131912D933D9340
:101030000196EFCFAF92BF92CF92DF92EF92FF92E5
:101040000F931F93CF93DF937C015B01C42FD22FAB
:10105000FC0182818823F9F040935D010E94DE1734
:1010600090935C0180935B0180E28C0F883008F0E4
:1010700061C0C77081E001C0880FCA95EAF7DF91AF
:10108000CF911F910F91FF90EF90DF90CF90BF9085
:10109000AF900C946E0D10915D01141340C08091BF
:1010A0005B0190915C010E94EA176C01B701C501D8
:1010B0000E943B12C816D90690F5C0E2CD0F1D174D
:1010C000B9F080E2810F883040F4177081E001C0F0
:1010D000880F1A95EAF70E94750DC83048F481E030
:1010E0009D2F977001C0880F9A95EAF70E946E0DA8
:1010F000802F0E945B0DC830E8F4D77081E001C0FA
:10110000880FDA95EAF7DF91CF911F910F91FF9049
:10111000EF90DF90CF90BF90AF900C94750D80E270
:101120008C0F883038F4C77081E001C0880FCA95F1
:10113000EAF7E9CFDF91CF911F910F91FF90EF90E8
:10114000DF90CF90BF90AF9008950F939C01CB019B
:10115000233F4CE5340759F1A8F4283DFCE53F074F
:1011600001F1293D4CE53407D1F1273D3C4591F48F
:1011700006E221EE41EE67ED7CE50E941A0880E070
:101180000F910895253FFCE53F07E9F0B0F0263FB9
:101190003C45F9F0FC018281882339F110925D0110
:1011A000EFCF07E225EE45EE68ED7CE5E6CF06E2FF
:1011B00021EE40EE63EF7CE5E0CF07E225EE44EE62
:1011C00064EF7CE5DACF06E221EE42EE65EF7CE5E6
:1011D000D4CF07E225EE46EE66EF7CE5CECF08E2FF
:1011E00021E045EE69ED7CE5C8CF81E0C9CFCF9322
:1011F000DF93EC01FB018281882309F419C1C2301D
:10120000FCE5DF07C0F1C6319CE5D90730F09E014F
:101210002A5F3C452930310570F50E940C169093E9
:10122000580280935702C031ECE5DE0709F4CFC0C5
:1012300008F05BC0C8308CE5D80709F4B6C088F563
:10124000C430ECE5DE0709F4A8C0C0F4C2308CE578
:10125000D80709F49CC0809157028260C330DC45F6
:1012600009F498C080915702909158020E941A1672
:101270000E94C50F80E0DF91CF91089580915702C1
:101280008061C630ECE5DE0709F484C08091570226
:101290008860C730DC4508F47DC0809157028062C9
:1012A00079C0CC308CE5D80709F489C070F48091FE
:1012B00057028C60CA30ECE5DE0709F46BC008F415
:1012C00078C0809157028E7F65C0CE308CE5D807FC
:1012D00009F479C0809157028B7FCF30DC4508F448
:1012E00059C0809157028F7E55C0CB3FECE5DE0799
:1012F00009F457C030F5C3318CE5D80709F46FC045
:1013000078F4C131ECE5DE0709F465C0C231DC4593
:1013100009F0A8CF0E94C50F809157028F773AC07D
:10132000C5318CE5D80709F462C008F476C0809115
:1013300058028160CA3FDC4509F094CF809358027F
:1013400091CFCF3FFCE5DF0709F44DC088F48091D1
:1013500058028D7FCD3F9CE5D90781F380915802DB
:101360008E7FCE3FDC4550F3809158028360E6CFFC
:10137000C130FDE5DF0709F459C008F444C080E03E
:10138000C230DD4509F06ECF0E9498166BCF809178
:10139000570281608093570265CF80915702846025
:1013A000F9CF809158028260C9CF80915702806442
:1013B000F1CF0E94C50F809157028068EBCF8091DA
:1013C00057028D7FE7CF80915702877FE3CF8091CF
:1013D00057028F7DDFCF809157028F7BDBCF8091CB
:1013E0005702837FD7CF809158028C7FA7CF8091FF
:1013F000570282FB992790F921E0922790FB82F90E
:1014000090FB83F9C7CF80915802982F90959170E7
:101410008E7F892B90FB81F991CF0E94C50F90910F
:101420005702892F97FB87F98058B4CF81E0ACCF62
:1014300081E021CFCF93DF93EB0186319C4511F5FD
:101440000E9447159A81992399F08A7A91E009F4CC
:1014500090E090935E01811109C089E20E942215FB
:101460000E94961580E0DF91CF91089585E3F6CF35
:1014700080915E01811104C089E20E942915F0CF9C
:1014800085E3FBCF81E0EFCFCF93DF93EC0181E0E9
:10149000898B8F810E944A1588850E945D150E9464
:1014A0009615EA81FB81309739F06C897D89CE01F0
:1014B0000696DF91CF910994DF91CF910895DB01DA
:1014C000FC018081813021F48D919C910C946E03FC
:1014D000823039F41396ED91FC91149712968C9109
:1014E00009940895FC018081813029F4FB018081F9
:1014F00091810C9483030895EF92FF920F931F93B1
:10150000CF93DF93EC018A85811134C0EB80FC809E
:1015100087E5F81A26E12E9DC0012F9D900D11241C
:10152000DC01A050BF4F1496ED91FC9115973097B8
:1015300031F054966D917C918A5F9E4F099586E1BA
:101540008E9D80018F9D100D112400501F4FF801BA
:1015500087810E945015F80180850E9463150E94C2
:101560009615188219861B861E821D8210926001B4
:1015700010925F01DF91CF911F910F91FF90EF903B
:101580000895DF92EF92FF920F931F93CF93DF9313
:101590007C01FB018281882391F0809136018F3F8D
:1015A00071F0C0E0D1E010E000E0DD24D394809140
:1015B0003601082E000C990B8017910744F4DF9137
:1015C000CF911F910F91FF90EF90DF9008958E8142
:1015D0008823C9F089859A858E159F0539F48091F5
:1015E0005F01909160018E159F0569F0DF86FC8692
:1015F000EB868989811103C0CE010E94440ACE0185
:1016000006960E947C0A0F5F1F4F6696D0CFEF921E
:10161000FF920F931F93CF93DF937C0197558F3FDA
:10162000910509F0D8F520913601022E000C330BFC
:101630002817390714F480933601FB01228136E123
:10164000389F8001399F100D1124E801C050DF4FF1
:10165000288B92818E81992349F1FA86E9868F5FE2
:101660008E830E94DE179E878D870E947D158F8353
:101670000E94471588870E945A159885892B88876C
:10168000E881F981309731F06C897D89C8018A5FE2
:101690009E4F0995F0926001E0925F0181E0DF9139
:1016A000CF911F910F91FF90EF9008958823B1F390
:1016B0008989882399F3C8018A5F9E4F0E947C0A1A
:1016C000EDCFCF92DF92EF92FF920F931F93CF93C4
:1016D000DF938091360110E006E18F3FF1F5DF9155
:1016E000CF911F910F91FF90EF90DF90CF900895D1
:1016F0000E9DF0010F9DF00D1124E050FF4FC288A8
:10170000D388C114D10439F470E060E081859285FA
:101710000E943B126C010E9DE0010F9DD00D112423
:10172000C050DF4F8E818823B9F08D859E850E9441
:10173000EA17C816D90680F4109F70011124898910
:10174000811105C0C70180509F4F0E94440AC70104
:101750008A5F9E4F0E947C0A1F5FE12EF12C8091D0
:101760003601082E000C990B8E159F050CF6B7CF8D
:1017700090936601809365010895E0916501F09171
:101780006601309721F00190F081E02D099480E00E
:101790000895E0916501F0916601309799F02091EC
:1017A0004301222359F02091570227FF07C0DC0193
:1017B0002C9111962C93119725E02C930280F381A4
:1017C000E02D099408952091630130916401281758
:1017D000390771F09093640180936301E091650192
:1017E000F0916601309721F00680F781E02D099491
:1017F000089520916101309162012817390771F035
:101800009093620180936101E0916501F09166011E
:10181000309721F00084F185E02D0994089585B773
:10182000806885BF85B7806885BF0895089508954D
:101830000C94160C08950C941A0C0E940F0C0E9424
:10184000170C0C94180C81E008950C94230C0E9442
:10185000D5170E9411070E9441180C941B0C9F92EF
:10186000AF92BF92CF92DF92EF92FF920F931F93AE
:10187000CF93DF93CDB7DEB72A970FB6F894DEBFCC
:101880000FBECDBF0E9459070E94250C882309F482
:101890006DC058E6A52E51E0B52E10E000E0902E68
:1018A000802F0E9403076C01F501E190F1905F0128
:1018B000E816F90609F454C08091130281FD0E94D4
:1018C0000C0797012C253D2580E0EE24E394F12CB4
:1018D000A9014E215F21452BE9F18E839F82CE2005
:1018E000DF2081E0CD2809F480E088870E94DE17A0
:1018F0008160782F9A8789874E815F8168858A8584
:101900000E94D90C000F111FF801E859FE4F808189
:101910009181E826F926F182E0820E94BD0B909128
:1019200067018917A1F10E94BD0B809367012A9678
:101930000FB6F894DEBF0FBECDBFDF91CF911F91E0
:101940000F91FF90EF90DF90CF90BF90AF909F905E
:101950000C94B2048F5FEE0CFF1C8C3009F0B8CFF2
:101960000F5F1F4F0730110509F099CF8FEF898363
:101970008A831B820E94DE178160782F9D838C836F
:1019800049815A816B818D810E94D90CC6CF2A96DC
:101990000FB6F894DEBF0FBECDBFDF91CF911F9180
:1019A0000F91FF90EF90DF90CF90BF90AF909F90FE
:1019B0000895CF93DF93CDB7DEB72B970FB6F8948A
:1019C000DEBF0FBECDBF4F83588769877A878B876D
:1019D0001E821D8285E0FE013796DE011196019080
:1019E0000D928A95E1F749815A816B817C818D81C5
:1019F0009E812B960FB6F894DEBF0FBECDBFDF9150
:101A0000CF910C943E12FC01808191810C94F414CE
:101A1000CF93C82F882329F18CEF8C0F813AA0F443
:101A20006C2F80913701909138010E94B116882364
:101A300029F08C2F0E9429150E9496158C2F0E9448
:101A40002215CF910C94961580E28C0F883048F4C3
:101A5000C77081E001C0880FCA95EAF70E944A1555
:101A6000F0CFCF910895882329F19CEF980F913AF8
:101A700020F40E9429150C94961590E2980F983046
:101A800050F4877091E001C0990F8A95EAF7892F89
:101A90000E945015F0CF9BE5980F933020F490E012
:101AA00080E00C94E30B885A873120F490E080E0CA
:101AB0000C94F90B0895CF93C82F0E94080DC933D9
:101AC00049F42FEF87EE93E0215080409040E1F7FA
:101AD00000C000008C2FCF910C94330D882321F08F
:101AE0000E944A150C9496150895882321F00E94AF
:101AF00050150C9496150895BF92CF92DF92EF92F5
:101B0000FF920F931F93CF93DF936C01D62FC72FB4
:101B1000FC01158112951F70028101110E946A1546
:101B20000E944015E82E882391F00023D1F08C2FDD
:101B3000807F803421F080E28D0F883090F082E049
:101B40000E94E1150E94401591E0E82EE926BC2E86
:101B5000B2949FE0B922EB2DF0E0E15FF04E0C94DF
:101B6000C51EE12CF4CF1C2F1F70C07F11F0129501
:101B7000107F0023A9F0112359F080E28D0F8830E7
:101B800010F0D11109C0812F0E944A150E949615AC
:101B90008D2F0E94080D14C0812F0E945D15F6CF75
:101BA0008D2F0E94330D112359F080E28D0F883064
:101BB00010F0D1112CC0812F0E9450150E94961553
:101BC0002B2D2850330B2430310520F40E94BD0BFF
:101BD0000E94B204EE2009F477C10E943C1580FDFA
:101BE00073C1F60112820E9436150E94C213C6010B
:101BF0000E94850F0E943615DF91CF911F910F91A2
:101C0000FF90EF90DF90CF90BF900C94E313812F63
:101C10000E946315D3CFFC2FFF70FF2EC07FC03210
:101C200019F0F29480EFF822DD2369F0D13049F108
:101C3000002391F1112351F1F601858180FFA8CF96
:101C40008F70858323C0002381F0111106C00E948C
:101C50007D158F290E946E0DB3CF1130C1F70E9400
:101C60007D158F290E948315ABCF111106C00E94EC
:101C70008C158F2D0E94750DA3CF113009F4A0CFC4
:101C8000F6CF002329F0163008F09ACF8F2DE2CF3F
:101C9000153008F095CFEDCF112359F3D93349F41E
:101CA000FFEF27EE33E0F15020403040E1F700C075
:101CB00000008D2F0E94330D83CF8C2F837009F08D
:101CC00041C001117DCF4D2F429546954770440F7D
:101CD000440F0D2F0F7010E030E020E0042E04C000
:101CE000000F111F221F331F0A94D2F760E070E02B
:101CF000CB01D4FF0FC06FE070E080E090E004C043
:101D0000660F771F881F991F4A95D2F760957095C7
:101D100080959095C695C695C370602B712B822BCC
:101D2000932BC23049F058F4C13019F00E9474135B
:101D300047CF0E94621344CF0E94861341CF0E9476
:101D400060133ECF8695002311F08C2F817088237D
:101D500009F436CF4D2F429546954770440F440FF6
:101D60000D2F0F7010E030E020E0042E04C0000FB3
:101D7000111F221F331F0A94D2F760E070E0CB01DD
:101D8000D4FF0FC06FE070E080E090E004C0660F09
:101D9000771F881F991F4A95D2F760957095809597
:101DA0009095C695C695C370602B712B822B932B93
:101DB000C23049F058F4C13019F00E94391400CFF4
:101DC0000E942714FDCE0E944B14FACE0E949C1351
:101DD000F7CECF70002329F08C2F0E94C2138D2FD5
:101DE00039CF8D2F0E94750D8C2F0E94E313E8CE02
:101DF000D23F89F160F4D03FC9F0D13F29F10023EF
:101E000009F442C01111C4CE8C2F8F7121C0D33F71
:101E100039F1D43FA1F7002369F1CF718C2F0E94D3
:101E2000C21363E08C2F0E94CC15CACE002341F070
:101E3000153008F0C5CE8C2F8F710E940614C0CECD
:101E4000163008F0BDCEF7CF8C2F8F71002369F2CA
:101E50000E94C213B5CE8C2F8F710023C9F3C5CF5A
:101E6000002329F08C2F8F710E94AD13A9CE0E9400
:101E7000A813A6CE81E00E94E115123008F4A0CE8E
:101E800082E00E94E1159CCE112359F0D93309F06C
:101E900010CF8FEF97EEE3E081509040E040E1F704
:101EA00006CF8C2F8F71A1CF4C2F4F706D2FC60195
:101EB0000E9410050E94D81283CE4C2F4F706D2FB8
:101EC000C6010E9413057CCEDF91CF911F910F9127
:101ED000FF90EF90DF90CF90BF9008950F931F93E6
:101EE000CF93DF93EC01688179818A810E94FE148F
:101EF0008C010E945D140E945F13B801CE01DF9136
:101F0000CF911F910F910C947C0DCF93DF93EC0137
:101F10008B819C81892B29F08881998189238F3F2E
:101F200059F4DF91CF910895CE010E946E0FCE013A
:101F3000DF91CF910C94DB03CE010E94CA04811182
:101F4000F3CF0E944015882361F38A81882349F3E7
:101F500082E0DF91CF910C94E115882321F00E945B
:101F60005D150C9496150895882321F00E94631541
:101F70000C94961508950E946A150E947A150C9487
:101F800096150E9430150C94BB0F0E9457150C94A7
:101F9000C10FE92FE295EF70E250EE3070F4F0E0FF
:101FA000E15EF04E0C94C51E803F19F020F4883E8F
:101FB00020F481E00895843FE1F380E00895883EB5
:101FC000C0F3813FD1F7F5CF93FB882780F90895BF
:101FD0000E94F4140C94C90FCF93DF9300D000D06B
:101FE0000F92CDB7DEB70F900F900F900F900F901C
:101FF000DF91CF910895CF93DF9300D000D000D030
:10200000CDB7DEB726960FB6F894DEBF0FBECDBFB4
:10201000DF91CF9108951F93CF93DF93C091770104
:1020200016E0809178018C1304C0DF91CF911F914D
:102030000895D0E01C9FF0011D9FF00D1124E7587A
:10204000FE4F4081518162817381848195810E941C
:10205000FB0F2196C770E5CF4091A9015091AA01CD
:102060006091AB017091AC018091AD019091AE0196
:102070000C94FB0F1F93CF93DF938091AE01807F71
:10208000A9F48091AB01882389F080917701C091F8
:1020900078016091A9017091AA01A091AC01B09161
:1020A000AD01D62FD72316E0C81304C0DF91CF911E
:1020B0001F91089590E0109711F0DF3F19F40196F9
:1020C0008770F2CF189F9001199F300D1124F901EC
:1020D000E758FE4F41814713F2CF40814613EFCFBF
:1020E00042814111ECCF438154814A1B5B0B483C38
:1020F000510528F78091AE018F7080618093AE0109
:10210000F901E258FE4F80818F708061808389EAF7
:1021100091E00E94850FDF91CF911F910C940B10DD
:10212000AF92BF92CF92DF92EF92FF920F931F93E5
:10213000CF93DF93CDB7DEB761970FB6F894DEBFCC
:102140000FBECDBF8C0185E0F801DE011D96019028
:102150000D928A95E1F7F80140815181E28089EA88
:10216000C82E81E0D82E6091AC017091AD0161154F
:10217000710509F461C19091A9012091AA01892FEB
:1021800082238F3F09F458C1A380B480F090AB0143
:10219000F501E61BF70BFF2009F4FCC08091AE01AE
:1021A000382F307FE83CF10508F0B2C0311179C01A
:1021B000FE2C251323C0941321C0E1101FC08F7083
:1021C00080618093AE010E942C10C6010E94850F91
:1021D0008091AE01F80185838F2D61960FB6F8943A
:1021E000DEBF0FBECDBFDF91CF911F910F91FF904A
:1021F000EF90DF90CF90BF90AF900895AB2829F07B
:10220000842F85238F3F09F033C180E0F82FF170D0
:10221000DF2E80FF3CC0809177012091780136E06D
:10222000821315C04D875E878D859E850E94F414AC
:10223000292F22952F702230F0F0243018F59F704E
:10224000F1F0F8019581907FD1F4D12C1EC090E07F
:10225000389FF001399FF00D1124E758FE4F61813E
:10226000651306C06081641303C062816E110FC0E4
:1022700001968770D5CF9F7011F0882331F3805E6F
:10228000883018F3C8010E94850FFD2CA5CFEE20E1
:1022900009F4A2CF8091AE0181608093AE01F12C50
:1022A0009BCF251306C0941304C0F801EE2009F457
:1022B0008DC04D875E878D859E850E94E80F88239F
:1022C00019F1EE2009F18091AE01803270F0209179
:1022D000A9013091AA0138872F831986BB86AA8667
:1022E0008C87CE0107960E94850F86E0F801A9EA47
:1022F000B1E001900D928A95E1F70E943A100E9498
:102300002C10FF24F39468CFC8010E94850FF9CFE9
:10231000311113C07A2DB98AA88A6E2D89890E943D
:10232000EC0F89EA91E00E94850F86E0F601119298
:102330008A95E9F70E942C10B2CF25130FC0941391
:102340000DC0E1100BC0F8018583C8010E94850F04
:1023500086E0F60111928A95E9F73ECF4D875E87B8
:102360008D859E850E94E80F882371F2EE2061F230
:102370008091AE01803208F4B8CF2091A90130914C
:10238000AA013A8329831B82BD82AC828E83CE014F
:102390000196A9CFE83CF10508F041C0FE2CEE20E3
:1023A00009F4B2CF25132AC0941328C08091AE013E
:1023B00080FD1BC0982F907FC1F0F8018583903F6E
:1023C00031F0982F907F905F8F70892B8583C801A3
:1023D0000E94850F86E0F801A9EAB1E001900D9214
:1023E0008A95E1F70E942C10F7CE86E0F801A9EA61
:1023F000B1E001900D928A95E1F7EECE4D875E87B0
:102400008D859E850E94E80F81116FCF8091AE016E
:1024100081608093AE01C8010E94850FDDCE7A2DC8
:10242000B98AA88A6E2D89890E94EC0F86E0F60190
:1024300011928A95E9F7D6CFEE2009F465CF4D8742
:102440005E878D859E850E94E80FF82E882309F40B
:102450005BCF86E0F801A9EAB1E001900D928A9580
:10246000E1F789EA91E00E94030D0E943A10BACF89
:1024700081E08E25CBCE88EC90E008951F93CF931A
:10248000DF93CDB7DEB72C970FB6F894DEBF0FBE43
:10249000CDBF4F83588769877A878B879C87CE010A
:1024A00007960E949010882369F08A859B85892B66
:1024B00039F04F815885842F85238F3F09F071C0F3
:1024C00016E05FC086E0FE013796DE0111960190AE
:1024D0000D928A95E1F78A859B85892B89F38F81F7
:1024E000988589238F3F61F32091780130E0C901FD
:1024F000019687709927409177014817190671F462
:102500000E94C50F109278011092770186E0E9EAE7
:10251000F1E0DF011D928A95E9F7D2CF96E0929F14
:10252000D001939FB00D1124A758BE4FFE013196E4
:1025300001900D929A95E1F7809378010E940B101B
:10254000BFCF819FC001112487589E4F0E949010D9
:102550008823E9F0E09177011E9FF0011124E758EC
:10256000FE4F4081518162817381848195810E94F7
:10257000FB0F8091770190E00196877099278093F7
:10258000770180917701909178018913DACF2C96A9
:102590000FB6F894DEBF0FBECDBFDF91CF911F9174
:1025A000089569857A858B859C850E94FB0F88CF6D
:1025B000EF92FF920F931F93CF93DF938C01892BA0
:1025C00081F0F12CEE24E394E8012196F801849146
:1025D000843770F4843008F05FC08130B1F082300D
:1025E000A1F1DF91CF911F910F91FF90EF9008958E
:1025F000853709F44CC008F43DC09CE7980F90372C
:1026000080F78F770E94330D49C00E5F1F4FFE0188
:10261000849190E2980F983060F48770FE2D01C08D
:10262000FF0F8A95EAF78F2F0E946D150E9496156D
:1026300002C00E94080D8F2D815030F2EFE9FFE0BB
:102640003197F1F700C00000F7CF0E5F1F4FFE017A
:10265000849190E2980F983050F48770FE2D01C05D
:10266000FF0F8A95EAF78F2F0E947315DFCF0E9424
:10267000330DE1CF0E5F1F4FFE01C491C150D8F260
:102680008FE99FE00197F1F700C00000F7CF0E5FE0
:102690001F4FFE01F490CFCF0E94080D8E01CBCFCB
:1026A00008950C9450130E9451136093EA017093A3
:1026B000EB018093EC019093ED010C94BB0F089516
:1026C0000C9453130F931F930091EA011091EB01A7
:1026D0002091EC013091ED01602B712B822B932B1B
:1026E0001F910F910C9453130F931F930091EA01C4
:1026F0001091EB012091EC013091ED0160237123E9
:10270000822393231F910F910C9453130F931F93C4
:102710000091EA011091EB012091EC013091ED0163
:1027200060277127822793271F910F910C945313D1
:102730000C9450130C9498130E949A136093E60122
:102740007093E7018093E8019093E9010C94BB0F2B
:1027500060E070E0CB010C949C130F931F9341E059
:1027600050E060E070E08A019B0104C0000F111F7F
:10277000221F331F8A95D2F7C901B8011F910F910B
:102780000C949C130F931F9341E050E060E070E0C5
:1027900004C0440F551F661F771F8A95D2F780919A
:1027A000E6019091E701A091E801B091E9018A0169
:1027B0009B01082B192B2A2B3B2BC901B8011F9118
:1027C0000F910C949C130F931F9341E050E060E035
:1027D00070E004C0440F551F661F771F8A95D2F71B
:1027E000CB01BA0160957095809590950091E601B6
:1027F0001091E7012091E8013091E90160237123F4
:10280000822393231F910F910C949C130F931F937A
:1028100041E050E060E070E004C0440F551F661FC7
:10282000771F8A95D2F78091E6019091E701A091F8
:10283000E801B091E9018A019B01082719272A279D
:102840003B27C901B8011F910F910C949C130F9362
:102850001F930091E6011091E7012091E80130916A
:10286000E901602B712B822B932B1F910F910C94FC
:102870009C130F931F930091E6011091E7012091A3
:10288000E8013091E90160237123822393231F9192
:102890000F910C949C130F931F930091E6011091DC
:1028A000E7012091E8013091E90160277127822733
:1028B00093271F910F910C949C1308952CE0929FE5
:1028C000800D1124982F977041E001C0440F9A9514
:1028D000EAF786958695869595E0899FF001112403
:1028E000E155FE4F90E080E070E05191DF011197DB
:1028F0009B01082E02C0369527950A94E2F72170B5
:1029000021952527242325272C9301968530910591
:1029100061F708952CE0929F800D1124982F9770F5
:1029200086958695869525E0829FF0011124E155D4
:10293000FE4F50E040E080E0219130E0092E02C0DF
:10294000369527950A94E2F721703327042E01C0AB
:10295000220F0A94EAF7822B4F5F5F4F45305105F3
:1029600059F70895BF92CF92DF92EF92FF920F93A3
:102970001F93CF93DF938C01C090E601D090E701C5
:10298000E090E801F090E9018091EA019091EB017B
:10299000A091EC01B091ED01C82AD92AEA2AFB2ABC
:1029A000CFE1D0E0BC2ED701C6010C2E04C0B695F5
:1029B000A795979587950A94D2F780FD0EC0219729
:1029C00088F7B12C8B2DDF91CF911F910F91FF9044
:1029D000EF90DF90CF90BF900895B8018C2F0E94A8
:1029E0003005019761F3EECFCF93DF93EC010E94A6
:1029F000B214BE01DF91CF910C9430051F93CF9399
:102A0000DF93EB0190917601992331F0CB01DF91B7
:102A1000CF911F910C94F414882379F0CB010E947C
:102A2000B214182F682FCE010E945E14BE01812FB0
:102A3000DF91CF911F910C943005CB010E948A1435
:102A4000182FF4CF682F80913701909138010C94A2
:102A50003117682F80913701909138010C943C1701
:102A600080913701909138010C9447178091EE01C5
:102A700085958595859508958091EE0187700895D7
:102A80009091EE01977081E009F480E008958091C3
:102A90001202089590911202892B809312020895D8
:102AA00080959091120298239093120208951092AB
:102AB0001202089580911102089590911102892BBC
:102AC000809311020895809590911102982390931C
:102AD0001102089510921102089590911002892B0D
:102AE00080931002089580959091100298239093FE
:102AF000100208951092100208958091EF01089538
:102B000008950C9480159091EF01981721F080930F
:102B1000EF010C94811508958091EF01882329F02D
:102B20001092EF0180E00C9481150895E091370137
:102B3000F0913801809112028083E0913701F09189
:102B40003801808190911102892B8083E0913701B7
:102B5000F0913801808190911002892B80839091AF
:102B6000EF01992381F0E0913701F09138018081E4
:102B7000892B808380913701909138010E949D16A6
:102B800081110E948C1580913701909138010C942D
:102B9000C90B08950C94C91598E0899F90011124E0
:102BA000622B6093EE010E94C2138091EE01859525
:102BB000859585950C94CA151092EE0180E00C94D1
:102BC000CA159091EE01809589238093EE01282FFC
:102BD000277071F4282F082E000C330B9217130660
:102BE00039F08595859585950E94E3130C94DC1545
:102BF000089590E080E00E94D31E21E08C3E9E4F1D
:102C000009F020E0822F089582E090E00C94CB1E22
:102C100083E090E00C94CB1ECF9384E090E00E9480
:102C2000CB1EC82F81E290E00E94CB1E982F8C2FE4
:102C3000CF910895CF93C92F682F84E090E00E9430
:102C4000D91E6C2F81E290E0CF910C94D91EAB017C
:102C5000BC018FE090E00C94EB1EAB01BC0183E162
:102C600090E00C94EB1E60E070E0CB010C942D160C
:102C700060E070E0CB010E9427160C9433166CEED6
:102C80007EEF90E080E00E94F71E60E082E090E03E
:102C90000E94D91E60E083E090E00E94D91E10924D
:102CA000EA011092EB011092EC011092ED0160E04C
:102CB00084E090E00E94D91E60E081E290E00E94F2
:102CC000D91E60E085E090E00E94D91E60E086E0B9
:102CD00090E00E94D91E6FEF87E090E00E94D91E1D
:102CE00040E050E0BA0188E090E00E94EB1E60E016
:102CF0008DE090E00E94D91E40E050E0BA0188E1EA
:102D000090E00E94EB1E60E087E190E00E94D91EF7
:102D100040E050E0BA018CE190E00E94EB1E60E0E0
:102D200080E290E00E94D91E0C9438160C943F1655
:102D3000682F8EE090E00C94D91EFC0132968091B1
:102D40004301882321F0809157029EE187FF96E09E
:102D500080E0915008F4089521912223D1F38F5FF0
:102D6000F8CF662301F1209143012223F1F0209155
:102D7000570227FF1AC0462F4695469546954E3175
:102D800090F4677021E030E002C0220F331F6A9593
:102D9000E2F7840F911DFC01828190E02823392302
:102DA00081E0232B69F480E00895FC0132960896B7
:102DB0002191261721F0E817F907D1F7F4CF81E028
:102DC00008959C01FC0132969FEF80E041914617E7
:102DD00051F09F3F19F4411101C0982F8F5F863049
:102DE000A9F79F3F09F40895290F311D97FD3A95E2
:102DF000F90162830895FC01329608962191261309
:102E000003C0DF0111971C92E817F907B9F708957D
:102E1000E62FE695E695E695EE3168F4E80FF92F92
:102E2000F11D677021E030E001C0220F6A95EAF7DA
:102E30008281822B82830895E62FE695E695E695BA
:102E4000EE3170F4E80FF92FF11D677021E030E0EA
:102E500001C0220F6A95EAF72095828128232283F8
:102E6000089520914301222329F02091570227FD44
:102E70000C9408170C94E11620914301222329F0A9
:102E80002091570227FD0C941C170C94FB16FC0193
:102E9000329680914301882351F08091570287FF39
:102EA00006C08EE1DF011D928A95E9F7089586E05C
:102EB000F9CF089508950C945A170E945B178091DA
:102EC0005D02843049F11092140288E190E020E420
:102ED0000FB6F894A895809360000FBE2093600011
:102EE00080E00E94B2040E945B1783B7817F8460F8
:102EF00083BF83B7816083BF7894889583B78E7FC3
:102F000083BF0FB6F894A895809160008861809384
:102F10006000109260000FBE08950895CF930E9444
:102F200059170E9459070E948D17C0E08C2F0E94EC
:102F30000307892B31F4CF5FC730C1F780E0CF9111
:102F4000089581E0FCCF08950C94A3170E94C50F4B
:102F50000E94BD0B0E94B2040C94A4171F921FB6CE
:102F60001F9211248F939F93AF93BF93809114026C
:102F7000811113C08091530290915402A091550287
:102F8000B09156024196A11DB11D809353029093BA
:102F90005402A0935502B0935602BF91AF919F91F6
:102FA0008F911F901FBE1F90189582E084BD93E003
:102FB00095BD9AEF97BD80936E0008952FB7F89452
:102FC0008091530290915402A0915502B091560203
:102FD0002FBF08959C014FB7F894809153029091B0
:102FE0005402A0915502B09156024FBF821B930B21
:102FF000089578941F921FB61F9211248F939F9368
:10300000AF93BF938091530290915402A0915502C7
:10301000B09156020196A11DB11D80935302909369
:103020005402A0935502B0935602BF91AF919F9165
:103030008F911F901FBE1F90189581E08093E00034
:1030400080E28093D8001092C9008FE19EE401973E
:10305000F1F700C0000087E090EBDC01809366028E
:1030600090936702A0936802B093690288E19CE0A4
:103070000FB6F894A895809360000FBE90936000FF
:10308000FFCF0E94F915811102C00E9496160E947E
:103090000416809313020E940C169093580280939A
:1030A00057020E940816682F70E090E080E00E94AE
:1030B00060136091E6017091E7018091E8019091C1
:1030C000E9010C949A1380913502089508950895AA
:1030D000CF93DF93EC01809143018823B1F180917C
:1030E000570287FF32C060E282E08093E9008FEFF1
:1030F0009091E800815095FD06C095ED9A95F1F705
:1031000000008111F5CF8091E80085FF1BC0809100
:10311000430170E050E040E0811104C050E040E025
:1031200068E070E0CE010E94341A8091E8008E774A
:103130008093E80080E2FE01A5E1B2E001900D92EB
:103140008A95E1F7DF91CF91089568E081E0CDCFD6
:10315000089580915C02811109C00E94C41B0E94E5
:10316000211C8091E20084608093E2000895109217
:103170005C020895089508950C94A61742E061EC4E
:1031800081E00E94401B42E261EC82E00C94401B13
:1031900080915F02833009F45FC030F48130C1F167
:1031A000823009F49BC008958A3009F487C08B30BF
:1031B00009F46DC0893009F04EC080915E02813201
:1031C00009F049C08091620290916302029708F071
:1031D00042C08091E800877F8093E8008091E800FA
:1031E00082FF35C09091F3008091F200029729F49C
:1031F0008091F1008B7F813021F48091F1008093E8
:1032000035028091E8008B778093E8000C94741B62
:1032100080915E02813AF9F48091E800877F809383
:10322000E8008091620290916302892B61F460E270
:1032300085E192E070E00E94831A8091E8008B772C
:103240008093E800089560E090E080E0F3CF809103
:103250005D028111C3CF089580915E02813AD9F752
:103260008091620290916302892BA9F78091E80016
:10327000877F8093E8008091E80080FFFCCF8091F9
:1032800043018093F1008091E8008E77BDCF80915B
:103290005E02813201F78091620290916302892B74
:1032A000D1F68091E800877F8093E8000E94741B2C
:1032B00080916002809343010C94C50F80915E025F
:1032C000813249F68091E800877F8093E8000E9470
:1032D000741B8091610280933602089580915E0292
:1032E000813A09F0B8CF8091E800877F8093E800A9
:1032F0008091E80080FFFCCF80913602C2CF84B776
:10330000877F84BF0FB6F894A8958091600088618C
:1033100080936000109260000FBE80E890E00FB6CE
:10332000F89480936100909361000FBE0E941D0C81
:103330000E94C41B0E94211C8091E2008460809343
:10334000E20078940E94AA1E0E94270C89E391E073
:103350000E94B80B80915D02853019F00E942F0CFD
:10336000F9CF0E945D1780915B02882399F30E9438
:103370008E17882379F30E941E1AECCF0C94C01983
:10338000292F33272330310519F168F42130310515
:1033900009F44AC02230310509F44BC090E080E0C6
:1033A00030E020E028C02132310579F122323105A8
:1033B000A9F780E490E021E835E061157105D9F0C6
:1033C0008BE390E026E435E061307105A1F0E6CFB3
:1033D00099278130910599F0009741F0823091054D
:1033E00089F00397D9F6E7E9F4E002C0E5EFF4E0ED
:1033F000849190E09F01FA01318320830895E7EDE5
:10340000F4E0F6CFEDE9F4E0F3CF89E090E02BE0D3
:1034100035E06115710579F389E090E024E235E04B
:103420006130710541F3BACF82E190E024E335E0E9
:10343000E2CF8BE390E029EF34E0DDCF80E189BD7E
:1034400082E189BD09B400FEFDCF8091D8008F7D57
:103450008093D8008091E00082608093E0008091AA
:10346000E00081FDFCCF0895AF92BF92CF92DF9232
:10347000FF920F931F93CF93DF936C01EB018A01AF
:103480000E94931BF82E811123C00115110539F0FC
:10349000F80180819181C81BD90BC80ED91EB12CAF
:1034A000A12C2097A9F08091E80085FD22C0809191
:1034B000E8008E778093E80001151105A1F0F8016E
:1034C00080819181A80EB91EB182A08285E0F82E7C
:1034D0008F2DDF91CF911F910F91FF90DF90CF90B3
:1034E000BF90AF9008950E94931B8823D1F2F82ECD
:1034F000EFCFF60181916F018093F1002197FFEFEB
:10350000AF1ABF0ACECFFC01809164029091650290
:1035100086179707A0F06115710529F49091E800CE
:103520009E779093E80090E06115710551F4911138
:1035300008C08091E80082FF34C080E00895BC019B
:10354000F2CF80915D028823C1F18530C1F1809175
:10355000E80083FD30C08091E80082FDEACF8091D1
:10356000E80080FFE1CF8091F3002091F200382F36
:103570006115710519F02830310558F091E02830B7
:10358000310509F090E02091E8002E772093E800C3
:10359000CBCF81918093F100615071092F5F3F4F34
:1035A000E7CF80915D02882341F0853041F0809122
:1035B000E80083FFBECF81E0089582E0089583E0B4
:1035C0000895FC0180916402909165028617970727
:1035D000A0F06115710529F48091E8008E77809341
:1035E000E80090E06115710551F4911108C08091D7
:1035F000E80082FF35C080E00895BC01F2CF8091E1
:103600005D028823C9F18530C9F18091E80083FD0E
:1036100031C08091E80082FDEACF8091E80080FF10
:10362000E1CF8091F3002091F200382F61157105F0
:1036300019F02830310558F091E02830310509F0B3
:1036400090E08091E8008E778093E800CBCF849162
:103650008093F1003196615071092F5F3F4FE6CFA3
:1036600080915D02882341F0853041F08091E8002F
:1036700083FFBDCF81E0089582E0089583E008953F
:10368000982F973028F08F708093E90081E008959B
:103690009093E900242F762F50E0981731F0709125
:1036A000EC002091ED005091F00021FD02C09F5FE1
:1036B000E8CF3091EB003E7F3093EB003091ED008E
:1036C0003D7F3093ED003091EB0031603093EB00A3
:1036D0007093EC002093ED005093F0002091EE00E9
:1036E00027FDE5CF80E0089580915E0287FF13C03B
:1036F0008091E80082FF06C08091E8008B7780937C
:10370000E80004C080915D028111F2CF089580919C
:103710005D028823D9F38091E80080FFF8CF809183
:10372000E8008E77ECCF2091E4003091E50095E63B
:10373000A9012091EC00822F817020FF06C08091AA
:10374000E80080FF06C080E008952091E80022FD97
:103750001AC080915D02882389F0853089F08091BC
:10376000EB0085FD0FC02091E4003091E500421789
:103770005307F9F29150E1F684E0089582E008954C
:1037800083E0089581E008950E94321C0E943A1C53
:10379000E0EEF0E0808181608083E8EDF0E0808100
:1037A0008F77808319BCA7EDB0E08C918E7F8C93CE
:1037B00080818F7E808310925C0208950F931F9307
:1037C000CF93DF930E94321C0E943A1CC8EDD0E0D8
:1037D00088818F77888388818068888388818F7DBE
:1037E000888319BC10925D021092590210925B02FC
:1037F00010925A0200EE10E0F80180818B7F8083E6
:1038000088818160888342E060E080E00E94401B04
:10381000E1EEF0E080818E7F8083E2EEF0E0808157
:1038200081608083808188608083F80180818E7FC1
:103830008083888180618883DF91CF911F910F9170
:103840000895E8EDF0E080818F7E8083E7EDF0E081
:1038500080818160808384E082BF81E080935C020C
:103860000C94DE1BE8EDF0E080818E7F8083109267
:10387000E20008951092DA001092E10008951F927C
:103880000F920FB60F9211242F933F934F935F9394
:103890006F937F938F939F93AF93BF93EF93FF9318
:1038A0008091E10082FF0BC08091E20082FF07C09F
:1038B0008091E1008B7F8093E1000E94A91E80919E
:1038C000DA0080FF19C08091D80080FF15C0809178
:1038D000DA008E7F8093DA008091D90080FF96C055
:1038E00080E189BD82E189BD09B400FEFDCF81E0A0
:1038F00080935D020E94A9188091E10080FF19C0A9
:103900008091E20080FF15C08091E2008E7F80935D
:10391000E2008091E20080618093E2008091D80013
:1039200080628093D80019BC85E080935D020E947C
:10393000BB188091E10084FF2BC08091E20084FFDE
:1039400027C080E189BD82E189BD89B5982F91703A
:1039500080FFFBCF8091D8008F7D8093D80080912D
:10396000E1008F7E8093E1008091E2008F7E809362
:10397000E2008091E20081608093E2008091590230
:10398000882309F449C084E080935D020E94BC183A
:103990008091E10083FF29C08091E20083FF25C070
:1039A0008091E100877F8093E10082E080935D0257
:1039B000109259028091E1008E7F8093E100809106
:1039C000E2008E7F8093E2008091E200806180932C
:1039D000E20042E060E080E00E94401B8091F00045
:1039E00088608093F0000E94BA18FF91EF91BF9118
:1039F000AF919F918F917F916F915F914F913F9187
:103A00002F910F900FBE0F901F90189519BC109218
:103A10005D020E94B71870CF8091E30087FD93E0AC
:103A200090935D02B3CF1F920F920FB60F921124A5
:103A30002F933F934F935F936F937F938F939F93B6
:103A4000AF93BF93CF93DF93EF93FF93D091E900B0
:103A5000DF708091EC00C82FC17080FDC0E810922B
:103A6000E9008091F000877F8093F00078940E94B5
:103A7000571D1092E9008091F00088608093F0005B
:103A8000CD2BCF70C093E900FF91EF91DF91CF91E3
:103A9000BF91AF919F918F917F916F915F914F9166
:103AA0003F912F910F900FBE0F901F9018951F936D
:103AB000CF93DF93CDB7DEB7AA970FB6F894DEBFEA
:103AC0000FBECDBF8EE592E02091F100FC01219365
:103AD000CF01F2E086369F07B9F70E94C81880919F
:103AE000E80083FF1EC180915E0290915F029A30D0
:103AF00008F017C1E92FF0E0E35DF04E0C94C51E0D
:103B0000803899F0823809F00CC1809162028F7080
:103B1000873008F006C18093E9008091EB0085FBB7
:103B2000882780F91092E90006C080915A0290918E
:103B30005B02911182609091E800977F9093E8007A
:103B40008093F1001092F1008091E8008E77E5C03B
:103B5000882309F4D3C0823009F0E3C08091600269
:103B60008111D6C0809162028F702FEF280F26300E
:103B700008F0D7C08093E9002091EB0020FFC8C077
:103B8000933031F48091EB0080628093EB00C0C0F1
:103B90009091EB0090619093EB0021E030E001C048
:103BA000220F8A95EAF72093EA001092EA008091AA
:103BB000EB008860EACF8111B4C0109160021F77DA
:103BC0008091E3008078812B8093E3008091E8006E
:103BD000877F8093E8000E94741B8091E80080FF3B
:103BE000FCCF8091E30080688093E30082E01111B4
:103BF00083E080935D0295C08058823008F091C0C8
:103C000080916002909161028C3D23E09207A1F5C2
:103C100083E08A838AE289834FB7F894DE011396A2
:103C200020E03EE051E2E32FF0E050935700E491B2
:103C300020FF03C0E295EF703F5FEF708E2F90E0A2
:103C4000EA30C0F0C7968D939D932F5F243159F7CA
:103C50004FBF8091E800877F8093E8006AE270E0C0
:103C6000CE0101960E94831A8091E8008B778093A1
:103C7000E80057C0C096E7CF60916202709163027E
:103C8000AE014F5F5F4F0E94BE19BC01892B09F442
:103C900048C09091E800977F9093E80089819A81CD
:103CA0000E94E11AE1CF8038E1F58091E800877F3A
:103CB0008093E800809159028093F10045CF8111F3
:103CC00030C090916002923060F58091E800877F6B
:103CD0008093E800909359020E94741B80915902CE
:103CE000882311F084E005C08091E30087FDFACFBE
:103CF00081E080935D020E94BE1813C08091600233
:103D0000813079F481E0933009F080E080935B02A8
:103D10001092E9008091E800877F8093E8000E947C
:103D2000741B8091E80083FF0AC08091E800877FC0
:103D30008093E8008091EB0080628093EB00AA966C
:103D40000FB6F894DEBF0FBECDBFDF91CF911F91AC
:103D500008950895CF9380915D028823A1F0C091CA
:103D6000E900CF709091EC00892F817090FD80E880
:103D7000C82B1092E9008091E80083FD0E94571D36
:103D8000CF70C093E900CF910895EE0FFF1F05900B
:103D9000F491E02D0994F999FECF92BD81BDF89A76
:103DA000992780B50895A8E1B0E042E050E00C9476
:103DB000FF1E262FF999FECF92BD81BDF89A01977B
:103DC00000B4021639F01FBA20BD0FB6F894FA9A63
:103DD000F99A0FBE08950396272F0E94DA1E0E94BB
:103DE000D91E252F0E94DA1E242F0C94DA1E01966C
:103DF000272F0E94DA1E0C94D91EDC01CB01FC0196
:103E0000F999FECF06C0F2BDE1BDF89A319600B433
:103E10000D9241505040B8F70895F894FFCFB30D7C
:103E2000B30D0B0E0B0EE00DE00DE00DE00D5D0E81
:103E3000E90EF80EF80E540FE00DE00D5D0FD40FF3
:103E4000D40FDD0FDD0FDF0FDD0FDD0FDD0FD40F22
:103E5000D40FE40FDD0FDD0FE40F801DA81D911EB0
:0E3E6000A81D911EDB1DFC1D911E531E5F1E32
:103E6E0000005F0A720A000000000000000000005F
:103E7E0000000000310100005F0A720A000000001D
:103E8E00000000000000000000002C0149000106A7
:103E9E00145300010614FFF00163186818661867C2
:103EAE0018A81801946697C63435333236F0F16788
:083EBE00F4F5F6F731919000D4
:00000001FF
